:020000040000FA
:060000005BEF07F01200A7
:020006001200E6
:06000800FCEF04F0120001
:060018007BEF06F0120070
:02001E000100DF
:0C002000ED0E0000780000000100000060
:04002C00D9CFE6FF43
:10003000E1CFD9FF836A95689398939A8A988A9AB0
:100040000F0EE66EE66AA7EC04F0E552E552956AFB
:10005000300E836E8A8A010EE66EE66AA7EC04F023
:10006000E552E5528A9A050EE66EE66AA7EC04F0C0
:10007000E552E552300E836E8A8A010EE66EE66A1C
:10008000A7EC04F0E552E5528A9A010EE66EE66AA4
:10009000A7EC04F0E552E552300E836E8A8A010E19
:1000A000E66EE66AA7EC04F0E552E5528A9A956896
:1000B000FE0EDBCFE6FFABD8E552080EE66EA7D802
:1000C000E5520C0EE66EA3D8E552010EE66E9FD8FF
:1000D000E552130EE66E9BD8E552E66A71D8E552FA
:1000E00000D0E552E7CFD9FF1200D9CFE6FFE1CF2C
:1000F000D9FFFD0EDBCFE9FFFE0EDBCFEAFFEF50AD
:1001000010E0FD0EDBCFE9FFFE0EDBCFEAFFEF5084
:10011000E66EA3D8E552FD0EDB2AFE0E01E3DB2AD4
:10012000E8D700D0E552E7CFD9FF1200D9CFE6FFDC
:10013000E1CFD9FFFD0EDBCFF6FFFE0EDBCFF7FFE1
:100140000800F55011E0FD0EDBCFF6FFFE0EDBCF11
:10015000F7FF0800F550E66E80D8E552FD0EDB2A69
:10016000FE0E01E3DB2AE6D700D0E552E7CFD9FF48
:100170001200D9CFE6FFE1CFD9FF956AFE0EDB5022
:100180004009836E8A98010EE66EE66AA7EC04F0D9
:10019000E552E5528A8A010EE66EE66AA7EC04F0A3
:1001A000E552E5528A9A010EE66EE66AA7EC04F083
:1001B000E552E552956800D0E552E7CFD9FF12002D
:1001C000D9CFE6FFE1CFD9FF956AFE0EDB5080095B
:1001D000836E8A98010EE66EE66AA7EC04F0E5529B
:1001E000E5528A8A010EE66EE66AA7EC04F0E55253
:1001F000E5528A9A010EE66EE66AA7EC04F0E55233
:10020000E552956800D0E552E7CFD9FF1200D9CF6B
:10021000E6FFE1CFD9FF956AFE0EDB50836E8A9828
:10022000010EE66EE66AA7EC04F0E552E5528A8A12
:10023000010EE66EE66AA7EC04F0E552E5528A9AF2
:10024000010EE66EE66AA7EC04F0E552E552956809
:1002500000D0E552E7CFD9FF1200D9CFE6FFE1CFBA
:10026000D9FF956AFE0EDB50836E8A88010EE66E1A
:10027000E66AA7EC04F0E552E5528A8A010EE66EC2
:10028000E66AA7EC04F0E552E5528A9A8A989568E6
:1002900000D0E552E7CFD9FF1200010EE66EB7DFBE
:1002A000E5521200D9CFE6FFE1CFD9FF100EF36E71
:1002B000FE0EDBCFF4FFF350F45C07E2FE0EDB50E2
:1002C000800FE66E7DDFE5520CD0FE0EDB50EC0FAA
:1002D000E76EFE0EE7CFDBFFDB50C00FE66E70DF90
:1002E000E552E552E7CFD9FF1200D9CFE6FFE1CFC3
:1002F000D9FF070EF36EFA0EDBCFF4FFF350F45C78
:1003000050E3FB0EDBCF06F0FC0EDBCF07F0FD0E5B
:10031000DBCF08F0FE0EDBCF09F0800E0B6E960EE1
:100320000C6E980E0D6E0E6A00EC07F0FB0E02C00C
:10033000DBFFFC0E03C0DBFFFD0E04C0DBFFFE0E87
:1003400005C0DBFFFB0EDBCF14F0FC0EDBCF15F09E
:10035000FD0EDBCF16F0FE0EDBCF17F0400E0B6E5E
:10036000420E0C6E0F0E0D6E0E6A14C006F015C014
:1003700007F016C008F017C009F000EC07F006C03F
:1003800014F007C015F008C016F009C017F0300EC1
:100390001426000E1522162217221450E66E5DDF79
:1003A000E552060EF36EFA0EDBCFF4FFF350F45C69
:1003B0004FE3FB0EDBCF06F0FC0EDBCF07F0FD0EAC
:1003C000DBCF08F0FE0EDBCF09F0A00E0B6E860E21
:1003D0000C6E010E0D6E0E6A00EC07F0FB0E02C0F3
:1003E000DBFFFC0E03C0DBFFFD0E04C0DBFFFE0ED7
:1003F00005C0DBFFFB0EDBCF14F0FC0EDBCF15F0EE
:10040000FD0EDBCF16F0FE0EDBCF17F0100E0B6EDD
:10041000270E0C6E0D6A0E6A14C006F015C007F0A8
:1004200016C008F017C009F000EC07F006C014F081
:1004300007C015F008C016F009C017F0300E1426DA
:10044000000E1522162217221450E66E06DFE55222
:10045000050EF36EFA0EDBCFF4FFF350F45C4FE3BE
:10046000FB0EDBCF06F0FC0EDBCF07F0FD0EDBCF83
:1004700008F0FE0EDBCF09F0A00E0B6E860E0C6EA0
:10048000010E0D6E0E6A00EC07F0FB0E02C0DBFFE2
:10049000FC0E03C0DBFFFD0E04C0DBFFFE0E05C03B
:1004A000DBFFFB0EDBCF14F0FC0EDBCF15F0FD0EF7
:1004B000DBCF16F0FE0EDBCF17F0100E0B6E270E03
:1004C0000C6E0D6A0E6A14C006F015C007F016C057
:1004D00008F017C009F000EC07F006C014F007C0E0
:1004E00015F008C016F009C017F0300E1426000EE3
:1004F0001522162217221450E66EAFDEE552040EC6
:10050000F36EFA0EDBCFF4FFF350F45C4EE3FB0E18
:10051000DBCF06F0FC0EDBCF07F0FD0EDBCF08F0E3
:10052000FE0EDBCF09F0100E0B6E270E0C6E0D6A5F
:100530000E6A00EC07F0FB0E02C0DBFFFC0E03C0EE
:10054000DBFFFD0E04C0DBFFFE0E05C0DBFFFB0E74
:10055000DBCF14F0FC0EDBCF15F0FD0EDBCF16F079
:10056000FE0EDBCF17F0E80E0B6E030E0C6E0D6A5D
:100570000E6A14C006F015C007F016C008F017C0C8
:1005800009F000EC07F006C014F007C015F008C031
:1005900016F009C017F0300E1426000E1522162290
:1005A00017221450E66E59DEE552030EF36EFA0E72
:1005B000DBCFF4FFF350F45C4DE3FB0EDBCF06F032
:1005C000FC0EDBCF07F0FD0EDBCF08F0FE0EDBCF1D
:1005D00009F0E80E0B6E030E0C6E0D6A0E6A00EC4D
:1005E00007F0FB0E02C0DBFFFC0E03C0DBFFFD0EBD
:1005F00004C0DBFFFE0E05C0DBFFFB0EDBCF14F0FB
:10060000FC0EDBCF15F0FD0EDBCF16F0FE0EDBCFC0
:1006100017F0640E0B6E0C6A0D6A0E6A14C006F0B9
:1006200015C007F016C008F017C009F000EC07F07D
:1006300006C014F007C015F008C016F009C017F086
:10064000300E1426000E1522162217221450E66EC4
:1006500004DEE552020EF36EFA0EDBCFF4FFF35028
:10066000F45C4CE3FB0EDBCF06F0FC0EDBCF07F0B7
:10067000FD0EDBCF08F0FE0EDBCF09F0640E0B6E33
:100680000C6A0D6A0E6A00EC07F0FB0E02C0DBFF7D
:10069000FC0E03C0DBFFFD0E04C0DBFFFE0E05C039
:1006A000DBFFFB0EDBCF14F0FC0EDBCF15F0FD0EF5
:1006B000DBCF16F0FE0EDBCF17F00A0E0B6E0C6AC6
:1006C0000D6A0E6A14C006F015C007F016C008F0D7
:1006D00017C009F000EC07F006C014F007C015F0D1
:1006E00008C016F009C017F0300E1426000E1522AF
:1006F000162217221450E66EB0DDE552010EF36E9D
:10070000FA0EDBCFF4FFF350F45C36E3FB0EDBCFE5
:1007100006F0FC0EDBCF07F0FD0EDBCF08F0FE0E7F
:10072000DBCF09F00A0E0B6E0C6A0D6A0E6A00EC44
:1007300007F0FB0E02C0DBFFFC0E03C0DBFFFD0E6B
:1007400004C0DBFFFE0E05C0DBFF300E146E156A21
:10075000166A176AD950FB0FE96EFF0EDA20EA6EAF
:10076000EE501426EE501522EE501622EE501722AF
:100770001450E66E72DDE552E552E7CFD9FF120064
:100780009268030E936EFD0E946E956AE70EB86E36
:10079000816A836A180EB66E676A666A050ECA6E4B
:1007A0000C0EBA6ECB68010ECD6ED08EF28EF28C2E
:1007B0009D809F809E90E66EE66AC9D8E552E5521C
:1007C0003B0EE66E16EC00F0E5524DEC01F0DC0E4F
:1007D000E66E0E0EE66E96EC00F0E552E552140E53
:1007E000E66E52EC01F0E552D20EE66E0E0EE66EAB
:1007F00096EC00F0E552E5528A948A96BB6881B087
:100800004AD00001010E786F780E0001646F656BAD
:10081000460EE66E5DD8E552D20E0001646F656B40
:10082000460EE66E55D8E55200012C0E646F010E9F
:10083000656F460EE66E4CD8E5520001860E646F79
:10084000010E656F460EE66E43D8E5520001E00EDC
:10085000646F010E656F460EE66E3AD8E5520001F0
:10086000860E646F010E656F460EE66E31D8E55256
:1008700000012C0E646F010E656F460EE66E28D8DF
:10088000E552D20E0001646F656B460EE66E20D80D
:10089000E552BAD717D081B215D00001010E786F9A
:1008A000780E0001646F656BFA0EE66E11D8E552A2
:1008B0000001B00E646F040E656FFA0EE66E08D884
:1008C000E552EED7010EE66E03D8E55298D7120036
:1008D000D9CFE6FFE1CFD9FF020EE126DF6AFE0E97
:1008E000DB50DF5C2AE21E0EE66E52EC01F0E552B0
:1008F000050EE66E62C014F063C015F0166A176A42
:1009000014C0E6FF15C0E6FF16C0E6FF17C0E6FFFD
:1009100075EC01F0186E050EE15E1850010EDB6AF1
:10092000320EF36E010EDBCFF4FFF350F45C03E202
:10093000010EDB2AF5D7DF2AD2D7020EE15C02E2F4
:10094000E16AE552E16EE552E7CFD9FF1200D9CF57
:10095000E6FFE1CFD9FF0001606B616BFD0EDBCFDD
:1009600014F0FE0EDBCF15F000011450605D155041
:10097000615914E2040EE66E3BEC07F0E552600E9E
:10098000E66E77EC07F0E552000000000000000082
:1009900000000001602B000E6123E0D7E552E7CF95
:1009A000D9FF1200D9CFE6FFE1CFD9FF0001606B7C
:1009B000616BFD0EDBCF14F0FE0EDBCF15F0145093
:1009C000605D1550615914E2310EE66E24EC07F0BB
:1009D000E552090EE66E3BEC07F0E552600EE66E5E
:1009E00077EC07F0E5520001602B000E6123E1D7A0
:1009F000E552E7CFD9FF1200DACFE4FFE2CFDAFF0A
:100A0000E9CFE4FFEACFE4FFF6CFE4FFF7CFE4FF5E
:100A1000F3CFE4FFF4CFE4FFFACFE4FF00EE00F001
:100A2000140EE80403E3EECFE4FFFBD7E652D9CF80
:100A3000E6FFE1CFD9FF060EE1269EA039D13C0E9C
:100A4000CF6EAF0ECE6E9E9067500001626F636BEB
:100A500062C01AF0196A66501910626F1AC063F00A
:100A60006251645D196E655163551A6E020E19C0AC
:100A7000DBFF030E1AC0DBFF0001785101E118D142
:100A8000020EDBCF19F0030EDBCF1AF01A3404E2AA
:100A900019509608000E1A5407E28A948A86BB6899
:100AA00000016C6B6D6B04D1020EDBCF19F0030EED
:100AB000DBCF1AF0D8801A5004E76A0E195CFF0EDB
:100AC0001A5807E28A848A96BB6800016C6B6D6BCA
:100AD000EFD0020EDBCF08F0030EDBCF09F0085099
:100AE00000016C2709506D236D3504E26C51F0084C
:100AF000000E6D5504E2F00E6C6F6D6B0BD0D8805C
:100B00006D5104E7100E6C5DFF0E6D5903E2100E7F
:100B10006C6F6D69020EDBCF19F0030EDBCF1AF09C
:100B20001A3404E31950FE08FF0E1A5410E2020EA4
:100B3000DBCF1BF0030EDBCF1CF0D8901C5004E67B
:100B4000020E1B5C000E1C5802E26C6B6D6B020EF9
:100B5000DBCF08F0030EDBCF09F06A51085C196E99
:100B60006B5109581A6E040E19C0DBFF050E1AC02E
:100B7000DBFF040E086E096A020EDBCF0DF0030ED8
:100B8000DBCF0EF0D3EC06F0065000016C251B6E97
:100B900007506D211C6E160E086E096A040EDBCF1D
:100BA0000DF0050EDBCF0EF0D3EC06F01B50062443
:100BB000196E1C5007201A6E19C0DEFF1AC0DDFF27
:100BC000DECF19F0DDCF1AF01A3404E21950010813
:100BD000000E1A5422E28A948A86DECF19F0DDCF05
:100BE0001AF01A3404E21950FF08000E1A5403E2F6
:100BF000DE68DD6A0FD0DECF19F0DDCF1AF0D890B5
:100C00001A5004E68C0E195C000E1A5803E28C0E82
:100C1000DE6EDD6ADF50BB6E3DD0DECF19F0DDCF7A
:100C20001AF0D8801A5004E7FF0E195CFF0E1A580C
:100C30002EE28A848A9608680968DECF0DF0DDCF3F
:100C40000EF0D3EC06F006C0DEFF07C0DDFFDECFFE
:100C500019F0DDCF1AF01A3404E21950FF08000E23
:100C60001A5403E2DE68DD6A0FD0DECF19F0DDCF63
:100C70001AF0D8901A5004E68C0E195C000E1A581F
:100C800003E28C0EDE6EDD6ADF50BB6E03D08A9409
:100C90008A96BB6868C06AF069C06BF066C068F08D
:100CA00067C069F0020EDBCF66F0030EDBCF67F0A2
:100CB000060EE15C02E2E16AE552E16EE552E7CF41
:100CC000D9FFE55200EE13F0140EE80403E3E5CF7C
:100CD000EDFFFBD7E5CFFAFFE5CFF4FFE5CFF3FF5C
:100CE000E5CFF7FFE5CFF6FFE5CFEAFFE5CFE9FF78
:100CF000E5CFDAFF1100DACFE4FFE2CFDAFFE65208
:080D0000E552E5CFDAFF110016
:080D08001E0EF66E000EF76EE0
:100D1000000EF86E00010900F550736F0900F550E0
:100D2000746F03E1736701D03DD00900F5506E6F19
:100D30000900F5506F6F0900F550706F0900090048
:100D4000F550E96E0900F550EA6E09000900090046
:100D5000F550716F0900F550726F09000900F6CF68
:100D600075F0F7CF76F0F8CF77F06EC0F6FF6FC072
:100D7000F7FF70C0F8FF0001715302E1725307E002
:100D80000900F550EE6E7107F8E27207F9D775C0E9
:100D9000F6FF76C0F7FF77C0F8FF00017307000E7B
:060DA000745BBFD71200D6
:0A0DA60009C013F008C012F0085055
:100DB0000D02F4CF07F0F3CF06F009500E02F4CF86
:100DC00009F0F3CF08F00D02F3500726F450082283
:100DD000E86A092212500E02F3500726F450082246
:100DE000E86A09220EAEF9EF06F01250085E1350C1
:100DF000095A13AE000C0D50085E0E50095A000C33
:100E0000056A046A036A026A200EE76ED890063605
:100E100007360836093602360336043605360B50D7
:100E2000025C0C5003580D5004580E50055809E34D
:100E30000B50025E0C50035A0D50045A0E50055AC6
:080E4000062AE72EE4D7120098
:080E4800FF0EE3501E6EEF0ED9
:100E500001D0F30EE76EE72E2BEF07F00C0E1D6EA0
:100E6000E76AE72E31EF07F01D2E30EF07F01E2E58
:060E700029EF07F012005B
:0A0E7600FF0EE3501E6E480E01D07F
:100E80004C0EE76EE72EFED7E76AE72EFED71E2E42
:060E9000F7D7000012007C
:0A0E9600000EF36E00EE00F0030EF4
:100EA00001D81200EA6002D0EE6AFCD7F350E96084
:060EB0001200EE6AFCD7FF
:0A0EB60012EE00F022EE00F0F86AE0
:100EC000019C84EC06F003EC00F0C0EC03F0FBD7CF
:020ED00012000E
:0E0ED200506F736974696F6E3A005350472D6C
:0D0EE000333045205175616420456E63007C
:010EED000004
:020EEE00FF0EF5
:100EF000E350E84E1200000000D000D000D0E82EF1
:040F0000FAD712000A
:020000040030CA
:0100010002FC
:010002000DF0
:010003003EBE
:010005009D5D
:010006008178
:00000001FF
