:020000040000FA
:06000000B5EF07F012004D
:020006001200E6
:06000800FCEF04F0120001
:02000E000000F0
:0100100000EF
:06001800D5EF06F0120016
:02001E000100DF
:0C0020000E00000078000000030000004B
:04002C00D9CFE6FF43
:10003000E1CFD9FF836A95689398939A8A988A9AB0
:100040000F0EE66EE66AA7EC04F0E552E552956AFB
:10005000300E836E8A8A010EE66EE66AA7EC04F023
:10006000E552E5528A9A050EE66EE66AA7EC04F0C0
:10007000E552E552300E836E8A8A010EE66EE66A1C
:10008000A7EC04F0E552E5528A9A010EE66EE66AA4
:10009000A7EC04F0E552E552300E836E8A8A010E19
:1000A000E66EE66AA7EC04F0E552E5528A9A956896
:1000B000FE0EDBCFE6FFABD8E552080EE66EA7D802
:1000C000E5520C0EE66EA3D8E552010EE66E9FD8FF
:1000D000E552130EE66E9BD8E552E66A71D8E552FA
:1000E00000D0E552E7CFD9FF1200D9CFE6FFE1CF2C
:1000F000D9FFFD0EDBCFE9FFFE0EDBCFEAFFEF50AD
:1001000010E0FD0EDBCFE9FFFE0EDBCFEAFFEF5084
:10011000E66EA3D8E552FD0EDB2AFE0E01E3DB2AD4
:10012000E8D700D0E552E7CFD9FF1200D9CFE6FFDC
:10013000E1CFD9FFFD0EDBCFF6FFFE0EDBCFF7FFE1
:100140000800F55011E0FD0EDBCFF6FFFE0EDBCF11
:10015000F7FF0800F550E66E80D8E552FD0EDB2A69
:10016000FE0E01E3DB2AE6D700D0E552E7CFD9FF48
:100170001200D9CFE6FFE1CFD9FF956AFE0EDB5022
:100180004009836E8A98010EE66EE66AA7EC04F0D9
:10019000E552E5528A8A010EE66EE66AA7EC04F0A3
:1001A000E552E5528A9A010EE66EE66AA7EC04F083
:1001B000E552E552956800D0E552E7CFD9FF12002D
:1001C000D9CFE6FFE1CFD9FF956AFE0EDB5080095B
:1001D000836E8A98010EE66EE66AA7EC04F0E5529B
:1001E000E5528A8A010EE66EE66AA7EC04F0E55253
:1001F000E5528A9A010EE66EE66AA7EC04F0E55233
:10020000E552956800D0E552E7CFD9FF1200D9CF6B
:10021000E6FFE1CFD9FF956AFE0EDB50836E8A9828
:10022000010EE66EE66AA7EC04F0E552E5528A8A12
:10023000010EE66EE66AA7EC04F0E552E5528A9AF2
:10024000010EE66EE66AA7EC04F0E552E552956809
:1002500000D0E552E7CFD9FF1200D9CFE6FFE1CFBA
:10026000D9FF956AFE0EDB50836E8A88010EE66E1A
:10027000E66AA7EC04F0E552E5528A8A010EE66EC2
:10028000E66AA7EC04F0E552E5528A9A8A989568E6
:1002900000D0E552E7CFD9FF1200010EE66EB7DFBE
:1002A000E5521200D9CFE6FFE1CFD9FF100EF36E71
:1002B000FE0EDBCFF4FFF350F45C07E2FE0EDB50E2
:1002C000800FE66E7DDFE5520CD0FE0EDB50EC0FAA
:1002D000E76EFE0EE7CFDBFFDB50C00FE66E70DF90
:1002E000E552E552E7CFD9FF1200D9CFE6FFE1CFC3
:1002F000D9FF070EF36EFA0EDBCFF4FFF350F45C78
:1003000050E3FB0EDBCF06F0FC0EDBCF07F0FD0E5B
:10031000DBCF08F0FE0EDBCF09F0800E0B6E960EE1
:100320000C6E980E0D6E0E6A5AEC07F0FB0E02C0B2
:10033000DBFFFC0E03C0DBFFFD0E04C0DBFFFE0E87
:1003400005C0DBFFFB0EDBCF14F0FC0EDBCF15F09E
:10035000FD0EDBCF16F0FE0EDBCF17F0400E0B6E5E
:10036000420E0C6E0F0E0D6E0E6A14C006F015C014
:1003700007F016C008F017C009F05AEC07F006C0E5
:1003800014F007C015F008C016F009C017F0300EC1
:100390001426000E1522162217221450E66E5DDF79
:1003A000E552060EF36EFA0EDBCFF4FFF350F45C69
:1003B0004FE3FB0EDBCF06F0FC0EDBCF07F0FD0EAC
:1003C000DBCF08F0FE0EDBCF09F0A00E0B6E860E21
:1003D0000C6E010E0D6E0E6A5AEC07F0FB0E02C099
:1003E000DBFFFC0E03C0DBFFFD0E04C0DBFFFE0ED7
:1003F00005C0DBFFFB0EDBCF14F0FC0EDBCF15F0EE
:10040000FD0EDBCF16F0FE0EDBCF17F0100E0B6EDD
:10041000270E0C6E0D6A0E6A14C006F015C007F0A8
:1004200016C008F017C009F05AEC07F006C014F027
:1004300007C015F008C016F009C017F0300E1426DA
:10044000000E1522162217221450E66E06DFE55222
:10045000050EF36EFA0EDBCFF4FFF350F45C4FE3BE
:10046000FB0EDBCF06F0FC0EDBCF07F0FD0EDBCF83
:1004700008F0FE0EDBCF09F0A00E0B6E860E0C6EA0
:10048000010E0D6E0E6A5AEC07F0FB0E02C0DBFF88
:10049000FC0E03C0DBFFFD0E04C0DBFFFE0E05C03B
:1004A000DBFFFB0EDBCF14F0FC0EDBCF15F0FD0EF7
:1004B000DBCF16F0FE0EDBCF17F0100E0B6E270E03
:1004C0000C6E0D6A0E6A14C006F015C007F016C057
:1004D00008F017C009F05AEC07F006C014F007C086
:1004E00015F008C016F009C017F0300E1426000EE3
:1004F0001522162217221450E66EAFDEE552040EC6
:10050000F36EFA0EDBCFF4FFF350F45C4EE3FB0E18
:10051000DBCF06F0FC0EDBCF07F0FD0EDBCF08F0E3
:10052000FE0EDBCF09F0100E0B6E270E0C6E0D6A5F
:100530000E6A5AEC07F0FB0E02C0DBFFFC0E03C094
:10054000DBFFFD0E04C0DBFFFE0E05C0DBFFFB0E74
:10055000DBCF14F0FC0EDBCF15F0FD0EDBCF16F079
:10056000FE0EDBCF17F0E80E0B6E030E0C6E0D6A5D
:100570000E6A14C006F015C007F016C008F017C0C8
:1005800009F05AEC07F006C014F007C015F008C0D7
:1005900016F009C017F0300E1426000E1522162290
:1005A00017221450E66E59DEE552030EF36EFA0E72
:1005B000DBCFF4FFF350F45C4DE3FB0EDBCF06F032
:1005C000FC0EDBCF07F0FD0EDBCF08F0FE0EDBCF1D
:1005D00009F0E80E0B6E030E0C6E0D6A0E6A5AECF3
:1005E00007F0FB0E02C0DBFFFC0E03C0DBFFFD0EBD
:1005F00004C0DBFFFE0E05C0DBFFFB0EDBCF14F0FB
:10060000FC0EDBCF15F0FD0EDBCF16F0FE0EDBCFC0
:1006100017F0640E0B6E0C6A0D6A0E6A14C006F0B9
:1006200015C007F016C008F017C009F05AEC07F023
:1006300006C014F007C015F008C016F009C017F086
:10064000300E1426000E1522162217221450E66EC4
:1006500004DEE552020EF36EFA0EDBCFF4FFF35028
:10066000F45C4CE3FB0EDBCF06F0FC0EDBCF07F0B7
:10067000FD0EDBCF08F0FE0EDBCF09F0640E0B6E33
:100680000C6A0D6A0E6A5AEC07F0FB0E02C0DBFF23
:10069000FC0E03C0DBFFFD0E04C0DBFFFE0E05C039
:1006A000DBFFFB0EDBCF14F0FC0EDBCF15F0FD0EF5
:1006B000DBCF16F0FE0EDBCF17F00A0E0B6E0C6AC6
:1006C0000D6A0E6A14C006F015C007F016C008F0D7
:1006D00017C009F05AEC07F006C014F007C015F077
:1006E00008C016F009C017F0300E1426000E1522AF
:1006F000162217221450E66EB0DDE552010EF36E9D
:10070000FA0EDBCFF4FFF350F45C36E3FB0EDBCFE5
:1007100006F0FC0EDBCF07F0FD0EDBCF08F0FE0E7F
:10072000DBCF09F00A0E0B6E0C6A0D6A0E6A5AECEA
:1007300007F0FB0E02C0DBFFFC0E03C0DBFFFD0E6B
:1007400004C0DBFFFE0E05C0DBFF300E146E156A21
:10075000166A176AD950FB0FE96EFF0EDA20EA6EAF
:10076000EE501426EE501522EE501622EE501722AF
:100770001450E66E72DDE552E552E7CFD9FF120064
:100780009268030E936EFD0E946E956AE70EB86E36
:10079000816A836A050ECA6E0C0EBA6ECB68010EB2
:1007A000CD6ED08EF28EF28C9D809F809E90F288CE
:1007B000F292F086F090E66EE66AC9D8E552E5520C
:1007C0003B0EE66E16EC00F0E5524DEC01F0900E9B
:1007D000E66E0F0EE66E96EC00F0E552E552140E52
:1007E000E66E52EC01F0E552860EE66E0F0EE66EF6
:1007F00096EC00F0E552E5528A948A96BB6881B087
:100800004AD00001010E786F780E0001626F636BB1
:10081000460EE66E5DD8E552D20E0001626F636B44
:10082000460EE66E55D8E55200012C0E626F010EA1
:10083000636F460EE66E4CD8E5520001860E626F7D
:10084000010E636F460EE66E43D8E5520001E00EDE
:10085000626F010E636F460EE66E3AD8E5520001F4
:10086000860E626F010E636F460EE66E31D8E5525A
:1008700000012C0E626F010E636F460EE66E28D8E3
:10088000E552D20E0001626F636B460EE66E20D811
:10089000E552BAD717D081B215D00001010E786F9A
:1008A000780E0001626F636BFA0EE66E11D8E552A6
:1008B0000001B00E626F040E636FFA0EE66E08D888
:1008C000E552EED7010EE66E03D8E55298D7120036
:1008D000D9CFE6FFE1CFD9FF020EE126DF6AFE0E97
:1008E000DB50DF5C2AE21E0EE66E52EC01F0E552B0
:1008F000050EE66E79C014F07AC015F0166A176A14
:1009000014C0E6FF15C0E6FF16C0E6FF17C0E6FFFD
:1009100075EC01F0186E050EE15E1850010EDB6AF1
:10092000320EF36E010EDBCFF4FFF350F45C03E202
:10093000010EDB2AF5D7DF2AD2D7020EE15C02E2F4
:10094000E16AE552E16EE552E7CFD9FF1200D9CF57
:10095000E6FFE1CFD9FF0001606B616BFD0EDBCFDD
:1009600014F0FE0EDBCF15F000011450605D155041
:10097000615914E2040EE66E95EC07F0E552600E44
:10098000E66ED1EC07F0E552000000000000000028
:1009900000000001602B000E6123E0D7E552E7CF95
:1009A000D9FF1200D9CFE6FFE1CFD9FF0001606B7C
:1009B000616BFD0EDBCF14F0FE0EDBCF15F0145093
:1009C000605D1550615914E2310EE66E7EEC07F061
:1009D000E552090EE66E95EC07F0E552600EE66E04
:1009E000D1EC07F0E5520001602B000E6123E1D746
:1009F000E552E7CFD9FF1200DACFE4FFE2CFDAFF0A
:100A0000E9CFE4FFEACFE4FFF6CFE4FFF7CFE4FF5E
:100A1000F3CFE4FFF4CFE4FFFACFE4FF00EE00F001
:100A2000140EE80403E3EECFE4FFFBD7E652D9CF80
:100A3000E6FFE1CFD9FF070EE126F0A007D08A7CC0
:100A4000F17AF0900001010E6D6F08D0F2A206D08D
:100A50008A7EF17CF2920001010E6D6F00016D51F2
:100A600050E08250080B01E0010E196E8250100B0D
:100A700001E0010EE8241910E76E060EE7CFDBFF58
:100A8000DB50030A2CE0010A1EE0030A0FE0010A12
:100A900001E032D06C0505E10001792B000E7A23CC
:100AA00004D000017907000E7A5B26D0030E6C5D3E
:100AB00005E10001792B000E7A2304D000017907AB
:100AC000000E7A5B19D06C5105E10001792B000E04
:100AD0007A2304D000017907000E7A5B0DD0020E54
:100AE0006C5D05E10001792B000E7A2304D0000132
:100AF0007907000E7A5B00D0060EDBCF6CF00001A8
:100B00006D6B9EA02FD13C0ECF6EAF0ECE6E9E9021
:100B1000000179510001625D196E635100017A553F
:100B20001A6E020E19C0DBFF030E1AC0DBFF7851EC
:100B300001E118D1020EDBCF19F0030EDBCF1AF062
:100B40001A3404E219509608000E1A5407E28A94E7
:100B50008A86BB6800016A6B6B6B04D1020EDBCF27
:100B600019F0030EDBCF1AF0D8801A5004E76A0E92
:100B7000195CFF0E1A5807E28A848A96BB68000146
:100B80006A6B6B6BEFD0020EDBCF08F0030EDBCF8E
:100B900009F0085000016A2709506B236B3504E205
:100BA0006A51F008000E6B5504E2F00E6A6F6B6B31
:100BB0000BD0D8806B5104E7100E6A5DFF0E6B59A5
:100BC00003E2100E6A6F6B69020EDBCF19F0030EA1
:100BD000DBCF1AF01A3404E31950FE08FF0E1A5442
:100BE00010E2020EDBCF1BF0030EDBCF1CF0D8901F
:100BF0001C5004E6020E1B5C000E1C5802E26A6BDD
:100C00006B6B020EDBCF08F0030EDBCF09F06851EF
:100C1000085C196E695109581A6E040E19C0DBFF81
:100C2000050E1AC0DBFF040E086E096A020EDBCF48
:100C30000DF0030EDBCF0EF02DEC07F00650000197
:100C40006A251B6E07506B211C6E160E086E096A12
:100C5000040EDBCF0DF0050EDBCF0EF02DEC07F010
:100C60001B500624196E1C5007201A6E19C0DEFF97
:100C70001AC0DDFFDECF19F0DDCF1AF01A3404E21E
:100C800019500108000E1A5422E28A948A86DECF97
:100C900019F0DDCF1AF01A3404E21950FF08000EE3
:100CA0001A5403E2DE68DD6A0FD0DECF19F0DDCF23
:100CB0001AF0D8901A5004E68C0E195C000E1A58DF
:100CC00003E28C0EDE6EDD6ADF50BB6E3DD0DECF00
:100CD00019F0DDCF1AF0D8801A5004E7FF0E195C26
:100CE000FF0E1A582EE28A848A9608680968DECFB9
:100CF0000DF0DDCF0EF02DEC07F006C0DEFF07C0D3
:100D0000DDFFDECF19F0DDCF1AF01A3404E21950FE
:100D1000FF08000E1A5403E2DE68DD6A0FD0DECF52
:100D200019F0DDCF1AF0D8901A5004E68C0E195C39
:100D3000000E1A5803E28C0EDE6EDD6ADF50BB6EC9
:100D400003D08A948A96BB6866C068F067C069F071
:100D500064C066F065C067F0020EDBCF64F0030E7E
:100D6000DBCF65F0070EE15C02E2E16AE552E16E7D
:100D7000E552E7CFD9FFE55200EE13F0140EE80478
:100D800003E3E5CFEDFFFBD7E5CFFAFFE5CFF4FFB7
:100D9000E5CFF3FFE5CFF7FFE5CFF6FFE5CFEAFFBD
:100DA000E5CFE9FFE5CFDAFF1100DACFE4FFE2CFCC
:0C0DB000DAFFE652E552E5CFDAFF110051
:040DBC001E0EF66EA3
:100DC000000EF76E000EF86E00010900F550736F0B
:100DD0000900F550746F03E1736701D03DD009003D
:100DE000F5506E6F0900F5506F6F0900F550706F88
:100DF00009000900F550E96E0900F550EA6E090096
:100E000009000900F550716F0900F550726F090073
:100E10000900F6CF75F0F7CF76F0F8CF77F06EC017
:100E2000F6FF6FC0F7FF70C0F8FF0001715302E1D9
:100E3000725307E00900F550EE6E7107F8E2720791
:100E4000F9D775C0F6FF76C0F7FF77C0F8FF00014D
:0A0E50007307000E745BBFD7120099
:060E5A0009C013F008C0FE
:100E600012F008500D02F4CF07F0F3CF06F009504E
:100E70000E02F4CF09F0F3CF08F00D02F35007266D
:100E8000F4500822E86A092212500E02F350072695
:100E9000F4500822E86A09220EAE53EF07F0125010
:100EA000085E1350095A13AE000C0D50085E0E5028
:040EB000095A000CCF
:0C0EB400056A046A036A026A200EE76EF9
:100EC000D890063607360836093602360336043619
:100ED00005360B50025C0C5003580D5004580E5050
:100EE000055809E30B50025E0C50035A0D50045A8A
:0C0EF0000E50055A062AE72EE4D7120027
:040EFC00FF0EE350B2
:100F00001E6EEF0E01D0F30EE76EE72E85EF07F0B1
:100F10000C0E1D6EE76AE72E8BEF07F01D2E8AEF91
:0A0F200007F01E2E83EF07F0120009
:060F2A00FF0EE3501E6EF5
:100F3000480E01D04C0EE76EE72EFED7E76AE72E8B
:0A0F4000FED71E2EF7D700001200A6
:060F4A00000EF36E00EE44
:100F500000F0030E01D81200EA6002D0EE6AFCD75E
:0A0F6000F350E9601200EE6AFCD7BE
:060F6A0012EE00F022EE81
:100F700000F0F86A019CDEEC06F003EC00F0C0EC37
:060F800003F0FBD7120094
:0A0F8600506F736974696F6E3A00D2
:100F90005350472D333045205175616420456E63B1
:010FA0000050
:0E0FA200FF0EE350E84E1200000000D000D019
:080FB00000D0E82EFAD7120070
:020000040030CA
:0100010002FC
:010002000DF0
:010003003EBE
:010005009D5D
:010006008178
:00000001FF
